{
  "_format": "hh-sol-artifact-1",
  "contractName": "BankProtocol",
  "sourceName": "contracts/BankProtocol.sol",
  "abi": [
    {
      "inputs": [
        {
          "internalType": "address",
          "name": "BankToken",
          "type": "address"
        }
      ],
      "stateMutability": "nonpayable",
      "type": "constructor"
    },
    {
      "inputs": [
        {
          "internalType": "address",
          "name": "sender",
          "type": "address"
        }
      ],
      "name": "calculateReward",
      "outputs": [],
      "stateMutability": "nonpayable",
      "type": "function"
    },
    {
      "inputs": [],
      "name": "contBalance",
      "outputs": [
        {
          "internalType": "uint256",
          "name": "",
          "type": "uint256"
        }
      ],
      "stateMutability": "view",
      "type": "function"
    },
    {
      "inputs": [],
      "name": "getTimestampTest",
      "outputs": [
        {
          "internalType": "uint256",
          "name": "",
          "type": "uint256"
        }
      ],
      "stateMutability": "view",
      "type": "function"
    },
    {
      "inputs": [],
      "name": "getrewardRateBySecond",
      "outputs": [
        {
          "internalType": "uint256",
          "name": "",
          "type": "uint256"
        }
      ],
      "stateMutability": "view",
      "type": "function"
    },
    {
      "inputs": [
        {
          "internalType": "address",
          "name": "",
          "type": "address"
        }
      ],
      "name": "isStaking",
      "outputs": [
        {
          "internalType": "bool",
          "name": "",
          "type": "bool"
        }
      ],
      "stateMutability": "view",
      "type": "function"
    },
    {
      "inputs": [
        {
          "internalType": "address",
          "name": "",
          "type": "address"
        }
      ],
      "name": "lastCalc",
      "outputs": [
        {
          "internalType": "uint256",
          "name": "",
          "type": "uint256"
        }
      ],
      "stateMutability": "view",
      "type": "function"
    },
    {
      "inputs": [],
      "name": "name",
      "outputs": [
        {
          "internalType": "string",
          "name": "",
          "type": "string"
        }
      ],
      "stateMutability": "view",
      "type": "function"
    },
    {
      "inputs": [],
      "name": "payoutAddr",
      "outputs": [
        {
          "internalType": "address",
          "name": "",
          "type": "address"
        }
      ],
      "stateMutability": "view",
      "type": "function"
    },
    {
      "inputs": [],
      "name": "payoutToken",
      "outputs": [
        {
          "internalType": "address",
          "name": "",
          "type": "address"
        }
      ],
      "stateMutability": "view",
      "type": "function"
    },
    {
      "inputs": [
        {
          "internalType": "address",
          "name": "",
          "type": "address"
        }
      ],
      "name": "rewardBalance",
      "outputs": [
        {
          "internalType": "uint256",
          "name": "",
          "type": "uint256"
        }
      ],
      "stateMutability": "view",
      "type": "function"
    },
    {
      "inputs": [],
      "name": "stakeTokens",
      "outputs": [],
      "stateMutability": "payable",
      "type": "function"
    },
    {
      "inputs": [
        {
          "internalType": "address",
          "name": "",
          "type": "address"
        }
      ],
      "name": "stakingBalance",
      "outputs": [
        {
          "internalType": "uint256",
          "name": "",
          "type": "uint256"
        }
      ],
      "stateMutability": "view",
      "type": "function"
    },
    {
      "inputs": [
        {
          "internalType": "uint256",
          "name": "_amount",
          "type": "uint256"
        }
      ],
      "name": "unstakeTokens",
      "outputs": [],
      "stateMutability": "nonpayable",
      "type": "function"
    },
    {
      "inputs": [],
      "name": "withdrawRewardToken",
      "outputs": [],
      "stateMutability": "nonpayable",
      "type": "function"
    }
  ],
  "bytecode": "0x60806040526040518060400160405280600d81526020017f42616e6b2050726f746f636f6c000000000000000000000000000000000000008152506000908051906020019062000051929190620000db565b5061011d6002556305f5e1006003553480156200006d57600080fd5b5060405162001451380380620014518339818101604052810190620000939190620001a2565b80600160006101000a81548173ffffffffffffffffffffffffffffffffffffffff021916908373ffffffffffffffffffffffffffffffffffffffff1602179055505062000281565b828054620000e99062000202565b90600052602060002090601f0160209004810192826200010d576000855562000159565b82601f106200012857805160ff191683800117855562000159565b8280016001018555821562000159579182015b82811115620001585782518255916020019190600101906200013b565b5b5090506200016891906200016c565b5090565b5b80821115620001875760008160009055506001016200016d565b5090565b6000815190506200019c8162000267565b92915050565b600060208284031215620001b557600080fd5b6000620001c5848285016200018b565b91505092915050565b6000620001db82620001e2565b9050919050565b600073ffffffffffffffffffffffffffffffffffffffff82169050919050565b600060028204905060018216806200021b57607f821691505b6020821081141562000232576200023162000238565b5b50919050565b7f4e487b7100000000000000000000000000000000000000000000000000000000600052602260045260246000fd5b6200027281620001ce565b81146200027e57600080fd5b50565b6111c080620002916000396000f3fe6080604052600436106100dd5760003560e01c806367b40cf71161007f578063aa7a07e911610059578063aa7a07e9146102d6578063ce46643b146102ed578063d5e05eeb146102f7578063d82e396214610322576100dd565b806367b40cf71461021f5780636f49712b1461025c5780639c5aafed14610299576100dd565b806340438350116100bb578063404383501461016357806345bc78ab1461018e5780634efa82b6146101cb578063608e4dd0146101f6576100dd565b806306fdde03146100e25780631079eb021461010d57806336c4ff7a14610138575b600080fd5b3480156100ee57600080fd5b506100f761034b565b6040516101049190610df7565b60405180910390f35b34801561011957600080fd5b506101226103d9565b60405161012f9190610e39565b60405180910390f35b34801561014457600080fd5b5061014d6103e3565b60405161015a9190610d98565b60405180910390f35b34801561016f57600080fd5b5061017861040d565b6040516101859190610e39565b60405180910390f35b34801561019a57600080fd5b506101b560048036038101906101b09190610c94565b610415565b6040516101c29190610e39565b60405180910390f35b3480156101d757600080fd5b506101e061042d565b6040516101ed9190610d98565b60405180910390f35b34801561020257600080fd5b5061021d60048036038101906102189190610ce6565b610453565b005b34801561022b57600080fd5b5061024660048036038101906102419190610c94565b610657565b6040516102539190610e39565b60405180910390f35b34801561026857600080fd5b50610283600480360381019061027e9190610c94565b61066f565b6040516102909190610ddc565b60405180910390f35b3480156102a557600080fd5b506102c060048036038101906102bb9190610c94565b61068f565b6040516102cd9190610e39565b60405180910390f35b3480156102e257600080fd5b506102eb6106a7565b005b6102f5610816565b005b34801561030357600080fd5b5061030c610acb565b6040516103199190610e39565b60405180910390f35b34801561032e57600080fd5b5061034960048036038101906103449190610c94565b610ad3565b005b6000805461035890611000565b80601f016020809104026020016040519081016040528092919081815260200182805461038490611000565b80156103d15780601f106103a6576101008083540402835291602001916103d1565b820191906000526020600020905b8154815290600101906020018083116103b457829003601f168201915b505050505081565b6000600254905090565b6000600160009054906101000a900473ffffffffffffffffffffffffffffffffffffffff16905090565b600047905090565b60046020528060005260406000206000915090505481565b600160009054906101000a900473ffffffffffffffffffffffffffffffffffffffff1681565b80600460003373ffffffffffffffffffffffffffffffffffffffff1673ffffffffffffffffffffffffffffffffffffffff1681526020019081526020016000205410156104d5576040517f08c379a00000000000000000000000000000000000000000000000000000000081526004016104cc90610e19565b60405180910390fd5b3373ffffffffffffffffffffffffffffffffffffffff166108fc829081150290604051600060405180830381858888f1935050505015801561051b573d6000803e3d6000fd5b5061052533610ad3565b80600460003373ffffffffffffffffffffffffffffffffffffffff1673ffffffffffffffffffffffffffffffffffffffff168152602001908152602001600020546105709190610f51565b600460003373ffffffffffffffffffffffffffffffffffffffff1673ffffffffffffffffffffffffffffffffffffffff168152602001908152602001600020819055506000600460003373ffffffffffffffffffffffffffffffffffffffff1673ffffffffffffffffffffffffffffffffffffffff168152602001908152602001600020541415610654576000600560003373ffffffffffffffffffffffffffffffffffffffff1673ffffffffffffffffffffffffffffffffffffffff16815260200190815260200160002060006101000a81548160ff0219169083151502179055505b50565b60066020528060005260406000206000915090505481565b60056020528060005260406000206000915054906101000a900460ff1681565b60076020528060005260406000206000915090505481565b6000600660003373ffffffffffffffffffffffffffffffffffffffff1673ffffffffffffffffffffffffffffffffffffffff1681526020019081526020016000205490506000600160009054906101000a900473ffffffffffffffffffffffffffffffffffffffff1673ffffffffffffffffffffffffffffffffffffffff1663a9059cbb33633b9aca006003548661073f9190610ec6565b6107499190610ec6565b6040518363ffffffff1660e01b8152600401610766929190610db3565b602060405180830381600087803b15801561078057600080fd5b505af1158015610794573d6000803e3d6000fd5b505050506040513d601f19601f820116820180604052508101906107b89190610cbd565b90506000821180156107c75750805b15610812576001600660003373ffffffffffffffffffffffffffffffffffffffff1673ffffffffffffffffffffffffffffffffffffffff168152602001908152602001600020819055505b5050565b6000600660003373ffffffffffffffffffffffffffffffffffffffff1673ffffffffffffffffffffffffffffffffffffffff16815260200190815260200160002054116108eb576001600660003373ffffffffffffffffffffffffffffffffffffffff1673ffffffffffffffffffffffffffffffffffffffff1681526020019081526020016000208190555042600760003373ffffffffffffffffffffffffffffffffffffffff1673ffffffffffffffffffffffffffffffffffffffff16815260200190815260200160002081905550610991565b600560003373ffffffffffffffffffffffffffffffffffffffff1673ffffffffffffffffffffffffffffffffffffffff16815260200190815260200160002060009054906101000a900460ff161561094b5761094633610ad3565b610990565b42600760003373ffffffffffffffffffffffffffffffffffffffff1673ffffffffffffffffffffffffffffffffffffffff168152602001908152602001600020819055505b5b600560003373ffffffffffffffffffffffffffffffffffffffff1673ffffffffffffffffffffffffffffffffffffffff16815260200190815260200160002060009054906101000a900460ff16610a3b576001600560003373ffffffffffffffffffffffffffffffffffffffff1673ffffffffffffffffffffffffffffffffffffffff16815260200190815260200160002060006101000a81548160ff0219169083151502179055505b34600460003373ffffffffffffffffffffffffffffffffffffffff1673ffffffffffffffffffffffffffffffffffffffff16815260200190815260200160002054610a869190610e70565b600460003373ffffffffffffffffffffffffffffffffffffffff1673ffffffffffffffffffffffffffffffffffffffff16815260200190815260200160002081905550565b600042905090565b6000600760008373ffffffffffffffffffffffffffffffffffffffff1673ffffffffffffffffffffffffffffffffffffffff1681526020019081526020016000205442610b209190610f51565b90506000600460008473ffffffffffffffffffffffffffffffffffffffff1673ffffffffffffffffffffffffffffffffffffffff1681526020019081526020016000205460025483610b729190610ef7565b610b7c9190610ef7565b905080600660008573ffffffffffffffffffffffffffffffffffffffff1673ffffffffffffffffffffffffffffffffffffffff16815260200190815260200160002054610bc99190610e70565b600660008573ffffffffffffffffffffffffffffffffffffffff1673ffffffffffffffffffffffffffffffffffffffff1681526020019081526020016000208190555042600760008573ffffffffffffffffffffffffffffffffffffffff1673ffffffffffffffffffffffffffffffffffffffff16815260200190815260200160002081905550505050565b600081359050610c6481611145565b92915050565b600081519050610c798161115c565b92915050565b600081359050610c8e81611173565b92915050565b600060208284031215610ca657600080fd5b6000610cb484828501610c55565b91505092915050565b600060208284031215610ccf57600080fd5b6000610cdd84828501610c6a565b91505092915050565b600060208284031215610cf857600080fd5b6000610d0684828501610c7f565b91505092915050565b610d1881610f85565b82525050565b610d2781610f97565b82525050565b6000610d3882610e54565b610d428185610e5f565b9350610d52818560208601610fcd565b610d5b816110bf565b840191505092915050565b6000610d73606083610e5f565b9150610d7e826110d0565b606082019050919050565b610d9281610fc3565b82525050565b6000602082019050610dad6000830184610d0f565b92915050565b6000604082019050610dc86000830185610d0f565b610dd56020830184610d89565b9392505050565b6000602082019050610df16000830184610d1e565b92915050565b60006020820190508181036000830152610e118184610d2d565b905092915050565b60006020820190508181036000830152610e3281610d66565b9050919050565b6000602082019050610e4e6000830184610d89565b92915050565b600081519050919050565b600082825260208201905092915050565b6000610e7b82610fc3565b9150610e8683610fc3565b9250827fffffffffffffffffffffffffffffffffffffffffffffffffffffffffffffffff03821115610ebb57610eba611032565b5b828201905092915050565b6000610ed182610fc3565b9150610edc83610fc3565b925082610eec57610eeb611061565b5b828204905092915050565b6000610f0282610fc3565b9150610f0d83610fc3565b9250817fffffffffffffffffffffffffffffffffffffffffffffffffffffffffffffffff0483118215151615610f4657610f45611032565b5b828202905092915050565b6000610f5c82610fc3565b9150610f6783610fc3565b925082821015610f7a57610f79611032565b5b828203905092915050565b6000610f9082610fa3565b9050919050565b60008115159050919050565b600073ffffffffffffffffffffffffffffffffffffffff82169050919050565b6000819050919050565b60005b83811015610feb578082015181840152602081019050610fd0565b83811115610ffa576000848401525b50505050565b6000600282049050600182168061101857607f821691505b6020821081141561102c5761102b611090565b5b50919050565b7f4e487b7100000000000000000000000000000000000000000000000000000000600052601160045260246000fd5b7f4e487b7100000000000000000000000000000000000000000000000000000000600052601260045260246000fd5b7f4e487b7100000000000000000000000000000000000000000000000000000000600052602260045260246000fd5b6000601f19601f8301169050919050565b7f54686520616d6f756e7420746f20756e7374616b65206d757374206265206c6560008201527f7373207468616e206f7220657175616c20746f207468652063757272656e742060208201527f7374616b65642062616c616e6365207769746820746869732061646472657373604082015250565b61114e81610f85565b811461115957600080fd5b50565b61116581610f97565b811461117057600080fd5b50565b61117c81610fc3565b811461118757600080fd5b5056fea2646970667358221220cf06e8c66f0cd127c9cb5f5e3ff56dd5a63243e015ef96dfb42f30ca698fa0a464736f6c63430008040033",
  "linkReferences": {},
  "deployedLinkReferences": {}
}